:100000000C945E000C9486000C9486000C94860080
:100010000C9486000C9486000C9486000C94860048
:100020000C9486000C9486000C9486000C94860038
:100030000C9486000C9486000C9486000C94860028
:100040000C94B1020C9486000C9421030C94FB02D6
:100050000C9486000C9486000C9486000C94860008
:100060000C9486000C948600000000080002010039
:100070000003040700000000000000000000000072
:10008000250028002B0000000000240027002A0083
:10009000040404040404040402020202020203032E
:1000A0000303030301020408102040800102040836
:1000B00010200102040810207203E00511241FBE65
:1000C000CFEFD8E0DEBFCDBF22E0AEE4B1E001C0AB
:1000D0001D92A635B207E1F711E0A0E0B1E0E4E738
:1000E000F0E102C005900D92AE34B107D9F710E0EF
:1000F000CDE5D0E004C02197FE010E942C06CC354E
:10010000D107C9F70E9456040C942D080C940000E6
:1001100090E0FC01E859FF4F2491FC01EC55FF4FA2
:100120003491FC01E057FF4FE491EE23C9F0222304
:1001300039F0233001F1A8F4213019F1223029F1EE
:10014000F0E0EE0FFF1FE458FF4FA591B4918FB779
:10015000F894EC91611126C030953E233C938FBFFB
:1001600008952730A9F02830C9F0243049F780914C
:1001700080008F7D03C0809180008F778093800006
:10018000DFCF84B58F7784BDDBCF84B58F7DFBCF88
:100190008091B0008F778093B000D2CF8091B00073
:1001A0008F7DF9CF3E2BDACFAF92BF92CF92DF9205
:1001B000EF92FF920F931F93CF93DF936C017B011C
:1001C0008B01040F151FEB015E01AE18BF08C017AD
:1001D000D10759F06991D601ED91FC910190F08120
:1001E000E02DC6010995892B79F7C501DF91CF91E3
:1001F0001F910F91FF90EF90DF90CF90BF90AF9045
:100200000895FC01538D448D252F30E0842F90E01C
:10021000821B930B541710F0CF9608950197089501
:10022000FC01918D828D981761F0A28DAE0FBF2FCA
:10023000B11D5D968C91928D9F5F9F73928F90E020
:1002400008958FEF9FEF0895FC01918D828D98178F
:1002500031F0828DE80FF11D858D90E008958FEFCC
:100260009FEF0895FC01918D228D892F90E0805C95
:100270009F4F821B91098F739927089587E591E01D
:100280000E94320121E0892B09F420E0822F089599
:1002900080E090E0892B29F00E943E0181110C94AE
:1002A00000000895FC01A48DA80FB92FB11DA35A19
:1002B000BF4F2C91848D90E001968F739927848F86
:1002C000A689B7892C93A089B1898C9183708064A9
:1002D0008C93938D848D981306C00288F389E02D4A
:1002E00080818F7D80830895EF92FF920F931F93FB
:1002F000CF93DF93EC0181E0888F9B8D8C8D9813D9
:100300001AC0E889F989808185FF15C09FB7F894E4
:10031000EE89FF896083E889F98980818370806430
:1003200080839FBF81E090E0DF91CF911F910F917B
:10033000FF90EF900895F62E0B8D10E00F5F1F4F8A
:100340000F731127E02E8C8D8E110CC00FB607FC99
:10035000FACFE889F989808185FFF5CFCE010E9427
:100360005201F1CFEB8DEC0FFD2FF11DE35AFF4F42
:10037000F0829FB7F8940B8FEA89FB8980818062B5
:10038000CFCFCF93DF93EC01888D8823B9F0AA8972
:10039000BB89E889F9898C9185FD03C0808186FD40
:1003A0000DC00FB607FCF7CF8C9185FFF2CF80818F
:1003B00085FFEDCFCE010E945201E9CFDF91CF91B1
:1003C0000895CF92DF92EF92FF920F931F93CF93F6
:1003D000DF9300D0CDB7DEB769834A83880F991FBA
:1003E0000091500210915102000F111FEAEFF1E04D
:1003F0009F012A5F31402017310714F41192F8CF82
:100400002981FC01E650FE4F21838A81808360E0D0
:1004100080914E020E9488001016110604F50150CA
:100420001109F801E650FE4FE080D0904C02C090D8
:100430004A0288E0F82E6E2D661F6627661F8C2DF7
:100440000E948800EE0C61E08D2D0E94880060E023
:100450008D2D0E948800FA94F110EDCFDDCF61E080
:1004600080914E020F900F90DF91CF911F910F91CD
:10047000FF90EF90DF90CF900C948800EF92FF9266
:100480000F931F93CF937C018C0183E0000F111F0A
:100490008A95E1F7065F1D4FC1E0F80111928F01C7
:1004A00040E06C2FC7010E94E101CF5FC930A9F77E
:1004B000CF911F910F91FF90EF9008950F931F938D
:1004C000CF93DF938C01D0E0C0E0809150029091F7
:1004D00051021816190674F4F801EC0FFD1F408143
:1004E000FE01E650FE4F408B6C2F6F5F90E080E086
:1004F0000E94E1012196C830D10539F7DF91CF91F3
:100500001F910F910895CF93DF93EC018091F40137
:100510009091F501009759F02091F6013091F70183
:100520002C173D0720F081E0DF91CF910895BE01A7
:100530006F5F7F4F0E945707009789F09093F501F6
:100540008093F401D093F701C093F6012091F80154
:100550003091F901232B39F7FC011082E4CF80E0C0
:10056000E3CF1F920F920FB60F9211242F933F9358
:100570008F939F93AF93BF938091530190915401B8
:10058000A0915501B09156013091520123E0230F03
:100590002D3758F50196A11DB11D2093520180936E
:1005A000530190935401A0935501B093560180914B
:1005B0004E0190914F01A0915001B09151010196CF
:1005C000A11DB11D80934E0190934F01A093500146
:1005D000B0935101BF91AF919F918F913F912F9116
:1005E0000F900FBE0F901F90189526E8230F0296CC
:1005F000A11DB11DD2CF1F920F920FB60F921124E1
:100600002F933F934F935F936F937F938F939F931A
:10061000AF93BF93EF93FF9387E591E00E94520160
:10062000FF91EF91BF91AF919F918F917F916F91CA
:100630005F914F913F912F910F900FBE0F901F90A0
:1006400018951F920F920FB60F9211242F938F932C
:100650009F93EF93FF93E0916701F0916801808190
:10066000E0916D01F0916E0182FD1BC0908180913F
:1006700070018F5F8F7320917101821741F0E091BB
:100680007001F0E0E95AFE4F958F80937001FF9161
:10069000EF919F918F912F910F900FBE0F901F9010
:1006A00018958081F4CF90E0FC01EC55FF4F249128
:1006B00080579F4FFC018491882399F090E0880F28
:1006C000991FFC01EA57FF4FA591B491FC01E45832
:1006D000FF4F859194918FB7F894EC91E22BEC93B6
:1006E0008FBF0895CF93DF9310925A011092590152
:1006F00088EE93E0A0E0B0E080935B0190935C0112
:10070000A0935D01B0935E018AE291E0909358015D
:100710008093570185EC90E090936401809363018E
:1007200084EC90E0909366018093650180EC90E00A
:10073000909368018093670181EC90E090936A0147
:100740008093690182EC90E090936C0180936B013F
:1007500086EC90E090936E0180936D011092700191
:10076000109271011092720110927301C7E0D0E0F3
:10077000D0934B02C0934A0285E090E090934D02E3
:1007800080934C0286E090E090934F0280934E025B
:1007900081E090E0909351028093500287E00E94A4
:1007A000530380914C020E94530380914E020E9499
:1007B000530361E080914E020E948800D0934B0267
:1007C000C0934A02EAE0F2E0119282E0EA34F807CC
:1007D000D9F7D0E0C0E08091500290915102C81743
:1007E000D90774F540E06FE0CE010E94E1018091ED
:1007F000500290915102C817D9072CF447E06BE0E2
:10080000CE010E94E10140E069E0CE010E94E101D9
:100810008091500290915102C817D9071CF4CE0163
:100820000E943E028091500290915102C817D90750
:100830002CF440E06CE0CE010E94E1012196CBCF88
:100840001092F5011092F4011092F7011092F60146
:100850001092F9011092F80190E080E00E9483026A
:100860002091F4013091F501811115C02115310558
:1008700019F0C9010E94CE061092F5011092F40100
:100880001092F9011092F8011092F7011092F601FE
:10089000DF91CF9108951092F9011092F8016DE364
:1008A00071E0C901DF91CF910C942608CF93DF93BB
:1008B00000D0CDB7DEB7789484B5826084BD84B5AE
:1008C000816084BD85B5826085BD85B5816085BD4B
:1008D00080916E00816080936E0010928100809103
:1008E000810082608093810080918100816080938B
:1008F0008100809180008160809380008091B100B0
:1009000084608093B1008091B00081608093B000DA
:1009100080917A00846080937A0080917A0082606E
:1009200080937A0080917A00816080937A00809130
:100930007A00806880937A001092C100E09167018C
:10094000F091680182E08083E0916301F09164019D
:100950001082E0916501F09166018FEC8083109226
:100960006F01E0916B01F0916C0186E08083E09172
:100970006901F0916A01808180618083E091690161
:10098000F0916A01808188608083E0916901F09133
:100990006A01808180688083E0916901F0916A0139
:1009A00080818F7D80838091500290915102181632
:1009B000190634F441E06CE090E080E00E94E1012F
:1009C00080915002909151021816190634F445E0B6
:1009D0006AE090E080E00E94E101809150029091F5
:1009E00051021816190624F490E080E00E943E029D
:1009F00086E091E00E945E0280E0A82E80E0B82EA2
:100A000087E591E00E943201892B09F4CDC087E58A
:100A100091E00E9410018A3009F0A1C0C090F40159
:100A2000D090F501C114D10441F00091F80110916A
:100A3000F901760101151105A9F58091F801909150
:100A4000F901892B09F47EC00091F4011091F501A0
:100A500068E371E0C8010E941D08892B09F05EC09F
:100A60008EE191E00E945E0290E080E00E948302AD
:100A70002091F4013091F501811167C021153105F4
:100A800019F0C9010E94CE061092F5011092F401EE
:100A90001092F9011092F8011092F7011092F601EC
:100AA000AFCF740147018FEF881A980AF701808150
:100AB000082E000C990B0E94E905892B91F7015033
:100AC00011090C0D1D1DF8018081082E000C990BD9
:100AD0000E94E905892B31F00E151F0518F0015011
:100AE0001109F1CFA8014F5F5F4F4E195F09509375
:100AF000F9014093F801CE14DF0420F4B701C601D8
:100B00000E941408E091F401F091F5018091F80140
:100B10009091F901E80FF91F10828FCF6EE371E019
:100B2000C8010E941D08892B19F486E191E09ACF33
:100B300065E471E0C8010E941D08892B19F48EE05C
:100B400091E090CF86E091E08DCF1092F901109264
:100B5000F8016DE371E0C9010E94260851CF8D3084
:100B600009F44ECF89831A820091F8011091F9019E
:100B70000F5F1F4FC8010E948302882309F440CFF2
:100B80002091F4013091F5018091F8019091F901E3
:100B9000BE016F5F7F4F820F931F0E942608109344
:100BA000F9010093F8012CCFA114B10409F428CF66
:100BB0000E943E01882309F423CF0E94000020CF29
:100BC0008091F4019091F501009711F00C94CE06FC
:100BD000089591110C94F205803219F089508550D6
:100BE000C8F708959927882708952F923F924F922A
:100BF0005F926F927F928F929F92AF92BF92CF92AD
:100C0000DF92EF92FF920F931F93CF93DF93CDB7B5
:100C1000DEB7CA1BDB0B0FB6F894DEBF0FBECDBF2D
:100C200009942A88398848885F846E847D848C84FE
:100C30009B84AA84B984C884DF80EE80FD800C8107
:100C40001B81AA81B981CE0FD11D0FB6F894DEBFEA
:100C50000FBECDBFED010895EE0FFF1F0590F4917B
:100C6000E02D09940F931F93CF93DF93823091056A
:100C700010F482E090E0E0915402F091550230E0EF
:100C800020E0B0E0A0E0309799F42115310509F497
:100C90004AC0281B390B24303105D8F58A819B8145
:100CA0006115710589F1FB0193838283FE0111C0F7
:100CB000408151810281138148175907E0F048179C
:100CC000590799F4109761F012960C9312971396A6
:100CD0001C933296CF01DF91CF911F910F91089510
:100CE0000093540210935502F4CF2115310551F0B1
:100CF0004217530738F0A901DB019A01BD01DF015A
:100D0000F801C1CFEF01F9CF9093550280935402BF
:100D1000CDCFFE01E20FF31F819391932250310951
:100D200039832883D7CF2091520230915302232B4D
:100D300041F420910201309103013093530220933A
:100D4000520220910001309101012115310541F439
:100D50002DB73EB74091040150910501241B350B7E
:100D6000E0915202F0915302E217F307A0F42E1B18
:100D70003F0B2817390778F0AC014E5F5F4F2417FF
:100D8000350748F04E0F5F1F5093530240935202B5
:100D9000819391939FCFF0E0E0E09CCFCF93DF93DE
:100DA0000097E9F0FC01329713821282A09154025D
:100DB000B0915502ED0130E020E01097A1F42081C0
:100DC0003181820F931F20915202309153022817D4
:100DD000390709F061C0F0935302E0935202DF91AA
:100DE000CF910895EA01CE17DF07E8F54A815B81CC
:100DF0009E0141155105B1F7E901FB83EA83499151
:100E00005991C40FD51FEC17FD0761F480819181C2
:100E10000296840F951FE9019983888382819381CB
:100E20009B838A83F0E0E0E012968D919C9113976A
:100E30000097B9F52D913C911197CD010296820F43
:100E4000931F20915202309153022817390739F627
:100E5000309751F51092550210925402B0935302FC
:100E6000A0935202BCCFD383C28340815181840FAF
:100E7000951FC817D90761F44E5F5F4F888199812C
:100E8000480F591F518340838A819B8193838283BA
:100E90002115310509F0B0CFF0935502E0935402CB
:100EA0009ECFFD01DC01C0CF13821282D7CFB0E00C
:100EB000A0E0EDE5F7E00C94F7058C01009751F404
:100EC000CB010E9432068C01C801CDB7DEB7E0E14C
:100ED0000C941306FC01E60FF71F9C012250310908
:100EE000E217F30708F49DC0D901CD91DC91119769
:100EF000C617D70798F0C530D10530F3CE01049757
:100F00008617970708F3C61BD70B2297C193D19377
:100F10006D937C93CF010E94CE06D6CF5B01AC1AB5
:100F2000BD0A4C018C0E9D1EA0915402B091550239
:100F3000512C412CF12CE12C109731F5809152026B
:100F4000909153028815990509F05CC04616570622
:100F500008F058C08091000190910101009741F480
:100F60008DB79EB74091040150910501841B950BEC
:100F7000E817F90708F055C0F0935302E0935202C6
:100F8000F90171836083A0CF8D919C911197129686
:100F90006C90129713967C901397A815B90559F584
:100FA0006C0142E0C40ED11CCA14DB0420F1AC0178
:100FB0004A195B09DA011296159780F062827382F2
:100FC00051834083D9016D937C93E114F10471F056
:100FD000D7011396FC93EE93129776CF22968C0F3F
:100FE0009D1FF90191838083F301EFCFF0935502A8
:100FF000E093540269CF4816590608F42C017D018C
:10100000D3019ACFCB010E9432067C01009749F0B0
:10101000AE01B8010E941408C8010E94CE068701E3
:1010200053CF10E000E050CFFB01DC0102C0019083
:101030000D9241505040D8F70895FB01DC018D918D
:10104000019080190110D9F3990B0895FB01DC017F
:1010500001900D920020E1F7089510E0CDE5D0E079
:1010600004C0FE010E942C062196CE35D107C9F797
:04107000F894FFCF22
:101074000000560280003C42A58181BD423C3C42B6
:10108400A58199A5423C3C42819981BD423C3C42A8
:10109400A581A599423C000000007401D40001011F
:1010A400C101320110012401534D494C4500534CF8
:0E10B40045455059005355525052495345007E
:00000001FF
